{
  "contractName": "CryptoTunes",
  "abi": [
    {
      "constant": false,
      "inputs": [],
      "name": "withdraw",
      "outputs": [],
      "payable": false,
      "stateMutability": "nonpayable",
      "type": "function"
    },
    {
      "constant": false,
      "inputs": [],
      "name": "unpause",
      "outputs": [],
      "payable": false,
      "stateMutability": "nonpayable",
      "type": "function"
    },
    {
      "constant": true,
      "inputs": [
        {
          "name": "_id",
          "type": "uint256"
        }
      ],
      "name": "getTune",
      "outputs": [
        {
          "name": "",
          "type": "uint256"
        },
        {
          "name": "",
          "type": "uint256"
        },
        {
          "name": "",
          "type": "uint256"
        },
        {
          "name": "",
          "type": "uint256"
        },
        {
          "name": "",
          "type": "uint256"
        },
        {
          "name": "",
          "type": "uint256"
        },
        {
          "name": "",
          "type": "uint256"
        },
        {
          "name": "",
          "type": "uint256"
        },
        {
          "name": "",
          "type": "address"
        },
        {
          "name": "",
          "type": "uint256"
        }
      ],
      "payable": false,
      "stateMutability": "view",
      "type": "function"
    },
    {
      "constant": true,
      "inputs": [],
      "name": "paused",
      "outputs": [
        {
          "name": "",
          "type": "bool"
        }
      ],
      "payable": false,
      "stateMutability": "view",
      "type": "function"
    },
    {
      "constant": false,
      "inputs": [],
      "name": "pause",
      "outputs": [],
      "payable": false,
      "stateMutability": "nonpayable",
      "type": "function"
    },
    {
      "constant": false,
      "inputs": [
        {
          "name": "_t1",
          "type": "uint256"
        },
        {
          "name": "_t2",
          "type": "uint256"
        },
        {
          "name": "_t3",
          "type": "uint256"
        },
        {
          "name": "_t4",
          "type": "uint256"
        },
        {
          "name": "_t5",
          "type": "uint256"
        },
        {
          "name": "_t6",
          "type": "uint256"
        },
        {
          "name": "_t7",
          "type": "uint256"
        },
        {
          "name": "_t8",
          "type": "uint256"
        }
      ],
      "name": "publishTune",
      "outputs": [
        {
          "name": "",
          "type": "uint256"
        }
      ],
      "payable": true,
      "stateMutability": "payable",
      "type": "function"
    },
    {
      "constant": true,
      "inputs": [],
      "name": "owner",
      "outputs": [
        {
          "name": "",
          "type": "address"
        }
      ],
      "payable": false,
      "stateMutability": "view",
      "type": "function"
    },
    {
      "constant": true,
      "inputs": [],
      "name": "getMyFavorites",
      "outputs": [
        {
          "name": "",
          "type": "uint256[]"
        }
      ],
      "payable": false,
      "stateMutability": "view",
      "type": "function"
    },
    {
      "constant": true,
      "inputs": [],
      "name": "getTunesLength",
      "outputs": [
        {
          "name": "",
          "type": "uint256"
        }
      ],
      "payable": false,
      "stateMutability": "view",
      "type": "function"
    },
    {
      "constant": false,
      "inputs": [
        {
          "name": "_id",
          "type": "uint256"
        }
      ],
      "name": "favorite",
      "outputs": [],
      "payable": true,
      "stateMutability": "payable",
      "type": "function"
    },
    {
      "constant": false,
      "inputs": [
        {
          "name": "_fee",
          "type": "uint256"
        }
      ],
      "name": "setFavoriteFee",
      "outputs": [],
      "payable": false,
      "stateMutability": "nonpayable",
      "type": "function"
    },
    {
      "constant": true,
      "inputs": [
        {
          "name": "_artist",
          "type": "address"
        }
      ],
      "name": "getArtistTunes",
      "outputs": [
        {
          "name": "",
          "type": "uint256[]"
        }
      ],
      "payable": false,
      "stateMutability": "view",
      "type": "function"
    },
    {
      "constant": false,
      "inputs": [
        {
          "name": "newOwner",
          "type": "address"
        }
      ],
      "name": "transferOwnership",
      "outputs": [],
      "payable": false,
      "stateMutability": "nonpayable",
      "type": "function"
    },
    {
      "inputs": [],
      "payable": false,
      "stateMutability": "nonpayable",
      "type": "constructor"
    },
    {
      "anonymous": false,
      "inputs": [],
      "name": "Pause",
      "type": "event"
    },
    {
      "anonymous": false,
      "inputs": [],
      "name": "Unpause",
      "type": "event"
    },
    {
      "anonymous": false,
      "inputs": [
        {
          "indexed": true,
          "name": "previousOwner",
          "type": "address"
        },
        {
          "indexed": true,
          "name": "newOwner",
          "type": "address"
        }
      ],
      "name": "OwnershipTransferred",
      "type": "event"
    }
  ],
  "bytecode": "0x606060405260008060146101000a81548160ff02191690831515021790555066038d7ea4c68000600355341561003457600080fd5b6000806000806000806000806000336000806101000a81548173ffffffffffffffffffffffffffffffffffffffff021916908373ffffffffffffffffffffffffffffffffffffffff160217905550336000806101000a81548173ffffffffffffffffffffffffffffffffffffffff021916908373ffffffffffffffffffffffffffffffffffffffff16021790555060405180807f47656e657369732054756e6520547261636b20310000000000000000000000008152506014019050604051809103902060019004985060405180807f47656e657369732054756e6520547261636b20320000000000000000000000008152506014019050604051809103902060019004975060405180807f47656e657369732054756e6520547261636b20330000000000000000000000008152506014019050604051809103902060019004965060405180807f47656e657369732054756e6520547261636b20340000000000000000000000008152506014019050604051809103902060019004955060405180807f47656e657369732054756e6520547261636b20350000000000000000000000008152506014019050604051809103902060019004945060405180807f47656e657369732054756e6520547261636b20360000000000000000000000008152506014019050604051809103902060019004935060405180807f47656e657369732054756e6520547261636b20370000000000000000000000008152506014019050604051809103902060019004925060405180807f47656e657369732054756e6520547261636b2038000000000000000000000000815250601401905060405180910390206001900491506001600680548060010182816102b8919061040c565b91600052602060002090600802016000610100604051908101604052808e81526020018d81526020018c81526020018b81526020018a8152602001898152602001888152602001878152509091909150600082015181600001556020820151816001015560408201518160020155606082015181600301556080820151816004015560a0820151816005015560c0820151816006015560e082015181600701555050039050336004600083815260200190815260200160002060006101000a81548173ffffffffffffffffffffffffffffffffffffffff021916908373ffffffffffffffffffffffffffffffffffffffff160217905550600560003373ffffffffffffffffffffffffffffffffffffffff1673ffffffffffffffffffffffffffffffffffffffff1681526020019081526020016000206000815480929190600101919050555050505050505050505061049d565b81548183558181151161043957600802816008028360005260206000209182019101610438919061043e565b5b505050565b61049a91905b8082111561049657600080820160009055600182016000905560028201600090556003820160009055600482016000905560058201600090556006820160009055600782016000905550600801610444565b5090565b90565b61100c806104ac6000396000f3006060604052600436106100c5576000357c0100000000000000000000000000000000000000000000000000000000900463ffffffff1680633ccfd60b146100ca5780633f4ba83a146100df57806357e17886146100f45780635c975abb146101965780638456cb59146101c357806386b58a45146101d85780638da5cb5b14610243578063bd4b294014610298578063c132578414610302578063da7d46581461032b578063e13db0b814610343578063e94b936e14610366578063f2fde38b146103f4575b600080fd5b34156100d557600080fd5b6100dd61042d565b005b34156100ea57600080fd5b6100f2610502565b005b34156100ff57600080fd5b61011560048080359060200190919050506105c0565b604051808b81526020018a81526020018981526020018881526020018781526020018681526020018581526020018481526020018373ffffffffffffffffffffffffffffffffffffffff1673ffffffffffffffffffffffffffffffffffffffff1681526020018281526020019a505050505050505050505060405180910390f35b34156101a157600080fd5b6101a96106a1565b604051808215151515815260200191505060405180910390f35b34156101ce57600080fd5b6101d66106b4565b005b61022d6004808035906020019091908035906020019091908035906020019091908035906020019091908035906020019091908035906020019091908035906020019091908035906020019091905050610774565b6040518082815260200191505060405180910390f35b341561024e57600080fd5b61025661090f565b604051808273ffffffffffffffffffffffffffffffffffffffff1673ffffffffffffffffffffffffffffffffffffffff16815260200191505060405180910390f35b34156102a357600080fd5b6102ab610934565b6040518080602001828103825283818151815260200191508051906020019060200280838360005b838110156102ee5780820151818401526020810190506102d3565b505050509050019250505060405180910390f35b341561030d57600080fd5b6103156109cf565b6040518082815260200191505060405180910390f35b61034160048080359060200190919050506109dc565b005b341561034e57600080fd5b6103646004808035906020019091905050610c02565b005b341561037157600080fd5b61039d600480803573ffffffffffffffffffffffffffffffffffffffff16906020019091905050610c67565b6040518080602001828103825283818151815260200191508051906020019060200280838360005b838110156103e05780820151818401526020810190506103c5565b505050509050019250505060405180910390f35b34156103ff57600080fd5b61042b600480803573ffffffffffffffffffffffffffffffffffffffff16906020019091905050610d95565b005b6000809054906101000a900473ffffffffffffffffffffffffffffffffffffffff1673ffffffffffffffffffffffffffffffffffffffff163373ffffffffffffffffffffffffffffffffffffffff1614151561048857600080fd5b6000809054906101000a900473ffffffffffffffffffffffffffffffffffffffff1673ffffffffffffffffffffffffffffffffffffffff166108fc3073ffffffffffffffffffffffffffffffffffffffff16319081150290604051600060405180830381858888f19350505050151561050057600080fd5b565b6000809054906101000a900473ffffffffffffffffffffffffffffffffffffffff1673ffffffffffffffffffffffffffffffffffffffff163373ffffffffffffffffffffffffffffffffffffffff1614151561055d57600080fd5b600060149054906101000a900460ff16151561057857600080fd5b60008060146101000a81548160ff0219169083151502179055507f7805862f689e2f13df9f062ff482ad3ad112aca9e0847911ed832e158c525b3360405160405180910390a1565b600080600080600080600080600080600080600060068e8154811015156105e357fe5b90600052602060002090600802019250600083600001541415151561060757600080fd5b600460008f815260200190815260200160002060009054906101000a900473ffffffffffffffffffffffffffffffffffffffff169150600260008f81526020019081526020016000205490508260000154836001015484600201548560030154866004015487600501548860060154896007015489899c509c509c509c509c509c509c509c509c509c505050509193959799509193959799565b600060149054906101000a900460ff1681565b6000809054906101000a900473ffffffffffffffffffffffffffffffffffffffff1673ffffffffffffffffffffffffffffffffffffffff163373ffffffffffffffffffffffffffffffffffffffff1614151561070f57600080fd5b600060149054906101000a900460ff1615151561072b57600080fd5b6001600060146101000a81548160ff0219169083151502179055507f6985a02210a168e66602d3235cb6db0e70f92b3ba4d376a33c0f3d9434bff62560405160405180910390a1565b600080600060149054906101000a900460ff1615151561079357600080fd5b60008a141515156107a357600080fd5b6001600680548060010182816107b99190610eea565b91600052602060002090600802016000610100604051908101604052808f81526020018e81526020018d81526020018c81526020018b81526020018a8152602001898152602001888152509091909150600082015181600001556020820151816001015560408201518160020155606082015181600301556080820151816004015560a0820151816005015560c0820151816006015560e082015181600701555050039050336004600083815260200190815260200160002060006101000a81548173ffffffffffffffffffffffffffffffffffffffff021916908373ffffffffffffffffffffffffffffffffffffffff160217905550600560003373ffffffffffffffffffffffffffffffffffffffff1673ffffffffffffffffffffffffffffffffffffffff168152602001908152602001600020600081548092919060010191905055508091505098975050505050505050565b6000809054906101000a900473ffffffffffffffffffffffffffffffffffffffff1681565b61093c610f1c565b600160003373ffffffffffffffffffffffffffffffffffffffff1673ffffffffffffffffffffffffffffffffffffffff1681526020019081526020016000208054806020026020016040519081016040528092919081815260200182805480156109c557602002820191906000526020600020905b8154815260200190600101908083116109b1575b5050505050905090565b6000600680549050905090565b600080600060149054906101000a900460ff161515156109fb57600080fd5b600683815481101515610a0a57fe5b906000526020600020906008020191506000826000015414151515610a2e57600080fd5b6003543410151515610a3f57600080fd5b600090505b600160003373ffffffffffffffffffffffffffffffffffffffff1673ffffffffffffffffffffffffffffffffffffffff16815260200190815260200160002080549050811015610b0157600160003373ffffffffffffffffffffffffffffffffffffffff1673ffffffffffffffffffffffffffffffffffffffff16815260200190815260200160002081815481101515610ada57fe5b9060005260206000209001548314151515610af457600080fd5b8080600101915050610a44565b60026000848152602001908152602001600020600081548092919060010191905055506004600084815260200190815260200160002060009054906101000a900473ffffffffffffffffffffffffffffffffffffffff1673ffffffffffffffffffffffffffffffffffffffff166108fc349081150290604051600060405180830381858888f193505050501515610b9757600080fd5b600160003373ffffffffffffffffffffffffffffffffffffffff1673ffffffffffffffffffffffffffffffffffffffff1681526020019081526020016000208054806001018281610be89190610f30565b916000526020600020900160008590919091505550505050565b6000809054906101000a900473ffffffffffffffffffffffffffffffffffffffff1673ffffffffffffffffffffffffffffffffffffffff163373ffffffffffffffffffffffffffffffffffffffff16141515610c5d57600080fd5b8060038190555050565b610c6f610f1c565b610c77610f1c565b600080600560008673ffffffffffffffffffffffffffffffffffffffff1673ffffffffffffffffffffffffffffffffffffffff16815260200190815260200160002054604051805910610cc75750595b9080825280602002602001820160405250925060009150600090505b600680549050811015610d8a578473ffffffffffffffffffffffffffffffffffffffff166004600083815260200190815260200160002060009054906101000a900473ffffffffffffffffffffffffffffffffffffffff1673ffffffffffffffffffffffffffffffffffffffff161415610d7d57808383815181101515610d6657fe5b906020019060200201818152505081806001019250505b8080600101915050610ce3565b829350505050919050565b6000809054906101000a900473ffffffffffffffffffffffffffffffffffffffff1673ffffffffffffffffffffffffffffffffffffffff163373ffffffffffffffffffffffffffffffffffffffff16141515610df057600080fd5b600073ffffffffffffffffffffffffffffffffffffffff168173ffffffffffffffffffffffffffffffffffffffff1614151515610e2c57600080fd5b8073ffffffffffffffffffffffffffffffffffffffff166000809054906101000a900473ffffffffffffffffffffffffffffffffffffffff1673ffffffffffffffffffffffffffffffffffffffff167f8be0079c531659141344cd1fd0a4f28419497f9722a3daafe3b4186f6b6457e060405160405180910390a3806000806101000a81548173ffffffffffffffffffffffffffffffffffffffff021916908373ffffffffffffffffffffffffffffffffffffffff16021790555050565b815481835581811511610f1757600802816008028360005260206000209182019101610f169190610f5c565b5b505050565b602060405190810160405280600081525090565b815481835581811511610f5757818360005260206000209182019101610f569190610fbb565b5b505050565b610fb891905b80821115610fb457600080820160009055600182016000905560028201600090556003820160009055600482016000905560058201600090556006820160009055600782016000905550600801610f62565b5090565b90565b610fdd91905b80821115610fd9576000816000905550600101610fc1565b5090565b905600a165627a7a7230582072b301329bc82c027e8bbcc6abbebedac4c618b25ee574e3c6c27b3524a2e03c0029",
  "source": "pragma solidity ^0.4.18;\n\nimport 'zeppelin-solidity/contracts/lifecycle/Pausable.sol';\n\ncontract CryptoTunes is Pausable {\n  struct Tune {\n    uint t1;\n    uint t2;\n    uint t3;\n    uint t4;\n    uint t5;\n    uint t6;\n    uint t7;\n    uint t8;\n  }\n\n  mapping(address => uint[]) myFavorites;\n  mapping(uint => uint) favoriteCount;\n  uint favoriteFee = 0.001 ether;\n  mapping(uint => address) tuneOwner;\n  mapping(address => uint) artistTuneCount;\n  Tune[] tunes;\n\n  function CryptoTunes() public {\n    owner = msg.sender;\n    uint _t1 = uint(keccak256(\"Genesis Tune Track 1\"));\n    uint _t2 = uint(keccak256(\"Genesis Tune Track 2\"));\n    uint _t3 = uint(keccak256(\"Genesis Tune Track 3\"));\n    uint _t4 = uint(keccak256(\"Genesis Tune Track 4\"));\n    uint _t5 = uint(keccak256(\"Genesis Tune Track 5\"));\n    uint _t6 = uint(keccak256(\"Genesis Tune Track 6\"));\n    uint _t7 = uint(keccak256(\"Genesis Tune Track 7\"));\n    uint _t8 = uint(keccak256(\"Genesis Tune Track 8\"));\n\n    uint tuneId = tunes.push(Tune(_t1, _t2, _t3, _t4, _t5, _t6, _t7, _t8)) - 1;\n    tuneOwner[tuneId] = msg.sender;\n    artistTuneCount[msg.sender]++;\n  }\n\n  function getTune(uint _id) public view returns(\n    uint, uint, uint, uint,\n    uint, uint, uint, uint,\n    address, uint) {\n    Tune storage tune = tunes[_id];\n    require(tune.t1 != 0);\n    address thisTuneOwner = tuneOwner[_id];\n    uint favCount = favoriteCount[_id];\n    return (tune.t1, tune.t2, tune.t3, tune.t4,\n    tune.t5, tune.t6, tune.t7, tune.t8,\n    thisTuneOwner, favCount);\n  }\n\n  function getTunesLength() public view returns (uint) {\n    return tunes.length;\n  }\n\n  function publishTune(uint _t1, uint _t2, uint _t3, uint _t4,\n    uint _t5, uint _t6, uint _t7, uint _t8) whenNotPaused external payable returns (uint) {\n    require(_t1 != 0);\n    uint tuneId = tunes.push(Tune(_t1, _t2, _t3, _t4, _t5, _t6, _t7, _t8)) - 1;\n    tuneOwner[tuneId] = msg.sender;\n    artistTuneCount[msg.sender]++;\n    return tuneId;\n  }\n\n  function getArtistTunes(address _artist) public view returns(uint[]) {\n    uint[] memory theseTunes = new uint[](artistTuneCount[_artist]);\n    uint inc = 0;\n    for (uint i = 0; i < tunes.length; i++) {\n      if (tuneOwner[i] == _artist) {\n        theseTunes[inc] = i;\n        inc++;\n      }\n    }\n    return theseTunes;\n  }\n\n  function getMyFavorites() public view returns(uint[]) {\n    return myFavorites[msg.sender];\n  }\n\n  function favorite(uint _id) whenNotPaused external payable {\n    Tune storage tune = tunes[_id];\n    require(tune.t1 != 0);\n    require(msg.value >= favoriteFee);\n    for (uint i = 0; i < myFavorites[msg.sender].length; i++) {\n      require(_id != myFavorites[msg.sender][i]);\n    }\n    favoriteCount[_id]++;\n    tuneOwner[_id].transfer(msg.value);\n    myFavorites[msg.sender].push(_id);\n  }\n\n  function withdraw() external onlyOwner {\n    owner.transfer(this.balance);\n  }\n\n  function setFavoriteFee(uint _fee) external onlyOwner {\n    favoriteFee = _fee;\n  }\n}\n",
  "sourcePath": "/Users/othobaggins/cryptotunes/contracts/CryptoTunes.sol",
  "compiler": {
    "name": "solc",
    "version": "0.4.18+commit.9cf6e910.Emscripten.clang"
  },
  "schemaVersion": "1.0.1",
  "updatedAt": "2018-02-20T16:05:09.450Z"
}